:1000000000400020ED0900002D0A00002F0A00002A
:1000100000000000000000000000000000000000E0
:10002000000000000000000000000000310A000095
:100030000000000000000000330A0000350A000044
:10004000370A0000370A0000370A0000370A0000AC
:10005000370A000000000000370A0000370A0000DD
:10006000370A0000370A0000370A0000370A00008C
:10007000370A0000370A0000370A0000370A00007C
:10008000370A0000850A0000370A0000370A00001E
:10009000370A0000370A0000370A0000370A00005C
:1000A000370A0000370A00000000000000000000CE
:1000B0000000000000000000000000000000000040
:1000C000054B0648033310B51B1A062B03D9044B06
:1000D000002B00D0984710BD6C0000206C00002061
:1000E000000000000648074910B5091A8910CB0F17
:1000F0005918491003D0044B002B00D0984710BD6D
:100100006C0000206C0000200000000010B5074CBF
:100110002378002B09D1FFF7D3FF054B002B02D02A
:10012000044800E000BF0123237010BD6C000020D4
:100130000000000058120000094B10B5002B03D03E
:100140000849094800E000BF08480368002B02D1B5
:10015000FFF7C8FF10BD064B002BF9D09847F7E713
:10016000000000007000002058120000680000200D
:1001700000000000164B002B00D1144B9D4640227E
:1001800092029A1A924600218B460F461348144A4F
:10019000121A00F01FFF0F4B002B00D098470E4B98
:1001A000002B00D098470020002104000D000D48CE
:1001B000002802D00C4800E000BF00F0E5FE20005F
:1001C000290000F0E1FC00F0C9FEC0460000080074
:1001D0000040002000000000000000006C00002033
:1001E00004010020000000000000000010B5002203
:1001F0000749084800F0F6F904227821064B1A60F6
:1002000092185A60D932FF329A60044B06C310BD6F
:100210003D0300009C00002090000020880000208A
:1002200010B5084C084A0949200000F0ECF92000FC
:1002300000F00CFA0028FAD0FA20800000F014FC3C
:1002400010BDC0469C00002000110000900000205E
:1002500010B50400074B4B432168180000F0DCFC8C
:10026000616800F0D9FC0122034B5A6000F0FCFBEE
:1002700010BDC04660EA000000800040F8B5A2262C
:100280000125164B8000C358154A164F1B02F60075
:100290001343BB51144B154CFD500023144A6560A9
:1002A000E560A3500422A251A122D200A35011481C
:1002B00000F03CFDA823E840DB00E05080239B00D9
:1002C000E5500D4A0D4B0A499F500D4A9A51084A74
:1002D0009A582A435A502560F8BDC046CC110000F8
:1002E0000300030000600040FC0F0000008000409D
:1002F0000405000040420F001405000000F001401A
:100300004081004070B505000A4B0C00534329683A
:10031000180000F081FC696800F07EFC0500064BC7
:100320006400E15A0020FFF7A9FF280000F09CFBC1
:1003300070BDC04660EA00000010000010B50378F0
:10034000012B0FD0002B07D0022B0FD1084B416897
:100350009A68084B06C309E0826841680548FFF7C0
:10036000D1FF03E041680348FFF772FF10BDC046AC
:1003700090000020880000202B38C3B20E20322BC2
:1003800001D8014AD05C70479611000010B51400E6
:10039000172940D00FDC022929D005DC002924D000
:1003A0008000012924D041E0082924D0102926D03A
:1003B00004293BD11CE0532930D00BDC2B292CD055
:1003C000402922D0202931D10723C2171340181801
:1003D000C0100DE04423FF33994221D0154B9942C0
:1003E00020D0A32922D106211DE0116001E04000A8
:1003F000206000201DE0C30F18184010F8E7032309
:10040000C217134018188010F2E70F23C2171340C9
:1004100018180011ECE7800000E04000032102E022
:100420000C2100E0182100F081FCE1E7002303200B
:10043000236010BD83020000F7B5070008000C0020
:10044000160000F097FA01AA050001003869FFF7CD
:100450009DFF002814D1019B3360207800280FD025
:100460002E280BD16D0001AA29003869FFF78EFFF5
:10047000002805D13368019A9B1833600134ECE7FA
:10048000FEBD0000F8B5134F06000D0038000978D6
:10049000140000F0A2FA03000620002B18D0DF1B86
:1004A0002760691C087800280CD02B2802D123680B
:1004B000013323600B782D2B02D12368013B23608D
:1004C0000131EFE70C22336853432268D3182360CD
:1004D000F8BDC046891100000A00F0B50B000E00FF
:1004E0000400002185B00832197001339342FBD11A
:1004F0006369187800F038FA202803D16369013362
:100500006361F5E76369187800F02EFA0D28F5D0DD
:100510006369187800F028FA0A28EFD06369187820
:1005200000F022FA0928E9D06369187800F01CFA73
:10053000002811D1200003A91C3000F009FA00287E
:1005400001D10B204CE0200003A9403000F000FA5C
:100550000028F6D0012043E06369187800F004FA1F
:10056000C0B2FFF709FF0700F31D01936369187814
:1005700000F0FAF9C0B2FFF7FFFE874218D16369B5
:10058000751C187800F0F0F930706369013363610D
:10059000002F0ED03B000B3BDBB2012B09D9019B96
:1005A0009D4203D100230820737019E02E00DDE77F
:1005B00035006369187800F0D7F9C0B2FFF7DCFEA8
:1005C0000138C0B2012809D86369187800F0CCF965
:1005D00028706369013501336361EAE70020287000
:1005E00005B0F0BD70B500250400016042604561B2
:1005F0001C3000F09EF92000403000F09AF90223F0
:100600002800237670BD10B5037E0400023B0C2049
:10061000012B1AD8002905D00B68A3604B68E36052
:100620008B6805E00423A360DB18E360D933FF3354
:100630002000236162611C3000F07BF92000403013
:1006400000F077F903230020237610BDF0B5037E78
:100650008DB004000D25032B00D067E103AE3100FF
:10066000FFF73AFF051E00D060E13078FFF784FE07
:100670000E2800D95AE100F0C5FA130058015801BC
:100680004C00BB00A1008700770011000F0058014B
:10069000ED00F900200158010022D0E00022C2E064
:1006A000636905A920000193FFF716FF02AB187BD1
:1006B000FFF762FE002307AF3B7008AA31000A284B
:1006C0000FD120000830FFF7DDFE051E00D02DE120
:1006D00009AA05A92000FFF7AFFE051E00D025E1FD
:1006E0001FE120000830FFF7CDFE051E00D01DE100
:1006F00002AAE1682069FFF749FE029B051E0993E3
:1007000000D013E12368616838009847019B63615A
:100710000CE105AD290020006769FFF7DDFE2878B0
:10072000FFF72AFE012307AE33700A280CD12900F7
:1007300008AA2000FFF780FE051E00D0F6E030007A
:10074000236861689847F1E002AAE1682069FFF731
:100750001DFE029B051E089300D0E7E06168300093
:10076000236898476761E1E005AE31002000FFF79C
:10077000B3FE07003078FFF7FFFD04250A2800D0FC
:10078000D4E007AD02230EE005AE31002000FFF7F4
:10079000A3FE07003078FFF7EFFD05250A2800D0FB
:1007A000C4E0042307AD2B70300000F0E3F868606C
:1007B00028002368616898473D00B7E005AF39001D
:1007C0002000FFF789FE01903878FFF7D5FD03255B
:1007D0000A2800D0AAE007AE3800357000F0CAF849
:1007E00023687060E060616830009847019D9DE07B
:1007F00005AE31002000FFF76FFE07003078FFF7ED
:10080000BBFD02250A2800D090E0052307AD30008B
:100810002B7000F0AFF86860A060C9E7092B01DC1D
:100820000133A3600132B55CA368002DF6D107A89F
:1008300006220AE0002B01DD013BA3600132B55C1A
:10084000A368002DF6D1072207A843600270236831
:10085000616877E7200063691C30591E00F06DF86D
:10086000431E98410E25404205405FE02600636923
:10087000403607A930005D1E00F06AF8002807D155
:1008800007998D4215D0300000F057F8002812D19A
:100890002900300000F051F800280CD1200007A9F1
:1008A0001C3000F055F80F2500283FD1079B01337D
:1008B000636100253AE0102538E0082307AF3B705C
:1008C00000231900FA1801331171102BFAD1636952
:1008D0000925187800F048F87B2827D163691E3570
:1008E0000133636102AB08AEED186369187800F05C
:1008F0003BF863697D2810D0187800F035F86369FB
:1009000030705A1C6261587800F02EF800280CD024
:100910000136AE42E9D10A2508E0002501333570E1
:1009200063612368616838000CE7072528000DB073
:10093000F0BD0023036218007047036A0200012023
:10094000082B04D0980081500020013313627047B7
:10095000036A02000220002B05D0013B1362834092
:1009600000209B580B6070470300613B192B00D897
:1009700020387047002170B50A0005000C002B7864
:10098000002B08D01E00303E092E02D9202B12D198
:1009900001320135F3E70A25821811780132303926
:1009A000C8B2092802D86B43CB18F6E71800002C10
:1009B00012D0584210E02B2B05D1013200290AD168
:1009C00001310024E5E72D2BE3D10132002902D1CA
:1009D00001310C00DDE7002070BD0378002B03D04F
:1009E0008B4202D00130F8E71800704703210A4813
:1009F00002680A430260094802680A430260084923
:100A0000084A094B9B1A03DD043BC858D050FBDC55
:100A100000F048F8FFF7AEFB240500405405004005
:100A200064120000000000206C000020FEE7FEE7DA
:100A3000FEE7FEE7FEE7FEE7084A0949094B10B565
:100A40001B688858FA22190A1B06184392000023D3
:100A500000F058FA4904C00B084310BD040500001B
:100A6000001001400001002070B5041E09D0FFF7FE
:100A7000E3FF050000F014F8FFF7DEFF401B84429F
:100A8000F8D870BD0022044B9A60044A1368013301
:100A9000DBB213607047C046FC100140000100202B
:100AA000704700002D4B10B51A78012A19D12C4A35
:100AB0001268120715D12B4AE0241168F0220800B1
:100AC000104021420BD128490968114209D1274918
:100AD000274A11608021274A0902116001E030286D
:100AE000F1D01A78012A0DD11D490968090709D1E9
:100AF000F0201C4909680140402903D11A490968BE
:100B0000014223D01B68DBB2012B25D1144B1B689B
:100B10001B0721D1134B1A68F0231A40A02A04D1D5
:100B2000114A12681A4203D016E0D02A14D1F7E70E
:100B3000114B1A68012A03D1C022104B1A600BE036
:100B40000F4A1A601A68012AFCD1F5E7C1218020FA
:100B5000C900C0054250D5E710BDC046E00F00F007
:100B6000E40F00F0E80F00F0EC0F00F0DFFF07C02B
:100B700004050040186C004000EC064014EC0640F0
:100B8000759300007047000010B500F011F8FFF7F2
:100B9000F9FF0120FFF768FFFFF728FBFFF740FB95
:100BA000024B002BFAD000E000BFF7E70000000086
:100BB000C421114A89005058104B0340C020000244
:100BC00003435350802391399B02FF3953501360E4
:100BD0008023A3220021DB05D20099500122A1200D
:100BE0009A60074BC0001950C12002318000195093
:100BF000403019501A60704700E100E0FF00FFFF2D
:100C00000010014003B47146490840004900095AE8
:100C100049008E4403BC7047002243088B4274D3C2
:100C200003098B425FD3030A8B4244D3030B8B42ED
:100C300028D3030C8B420DD3FF22090212BA030CF6
:100C40008B4202D31212090265D0030B8B4219D3D7
:100C500000E0090AC30B8B4201D3CB03C01A5241F7
:100C6000830B8B4201D38B03C01A5241430B8B423F
:100C700001D34B03C01A5241030B8B4201D30B0328
:100C8000C01A5241C30A8B4201D3CB02C01A52414F
:100C9000830A8B4201D38B02C01A5241430A8B4212
:100CA00001D34B02C01A5241030A8B4201D30B02FB
:100CB000C01A5241CDD2C3098B4201D3CB01C01A15
:100CC000524183098B4201D38B01C01A524143091F
:100CD0008B4201D34B01C01A524103098B4201D30D
:100CE0000B01C01A5241C3088B4201D3CB00C01A7A
:100CF000524183088B4201D38B00C01A52414308F2
:100D00008B4201D34B00C01A5241411A00D2014616
:100D1000524110467047FFE701B5002000F0F0F89F
:100D200002BDC0460029F7D076E7704703460B4363
:100D30007FD4002243088B4274D303098B425FD3D4
:100D4000030A8B4244D3030B8B4228D3030C8B4200
:100D50000DD3FF22090212BA030C8B4202D31212E6
:100D6000090265D0030B8B4219D300E0090AC30BBB
:100D70008B4201D3CB03C01A5241830B8B4201D368
:100D80008B03C01A5241430B8B4201D34B03C01A51
:100D90005241030B8B4201D30B03C01A5241C30AC9
:100DA0008B4201D3CB02C01A5241830A8B4201D33A
:100DB0008B02C01A5241430A8B4201D34B02C01A24
:100DC0005241030A8B4201D30B02C01A5241CDD2C9
:100DD000C3098B4201D3CB01C01A524183098B4214
:100DE00001D38B01C01A524143098B4201D34B01FD
:100DF000C01A524103098B4201D30B01C01A524160
:100E0000C3088B4201D3CB00C01A524183088B42E6
:100E100001D38B00C01A524143088B4201D34B00CF
:100E2000C01A5241411A00D2014652411046704741
:100E30005DE0CA0F00D04942031000D34042534046
:100E400000229C4603098B422DD3030A8B4212D306
:100E5000FC22890112BA030A8B420CD38901921138
:100E60008B4208D3890192118B4204D389013AD075
:100E7000921100E08909C3098B4201D3CB01C01A4A
:100E8000524183098B4201D38B01C01A524143095D
:100E90008B4201D34B01C01A524103098B4201D34B
:100EA0000B01C01A5241C3088B4201D3CB00C01AB8
:100EB000524183088B4201D38B00C01A5241D9D2D0
:100EC00043088B4201D34B00C01A5241411A00D251
:100ED0000146634652415B10104601D34042002B4D
:100EE00000D54942704763465B1000D3404201B5CC
:100EF000002000F005F802BD0029F8D016E7704781
:100F00007047C046F0B54F464646C0B41604360C8E
:100F10009946330005042C0C070C150C63437E43E3
:100F20006F4365431C0CAD1964199C46A64203D956
:100F300080235B02984647446346250CEF191D0445
:100F40004B464A4343432D0C240464199918C9198C
:100F500020000CBC90469946F0BDC046084B10B529
:100F60000400002B02D0002100E000BF054B1868F0
:100F7000836A002B00D09847200000F033F8C04669
:100F800000000000541200000E4B70B500251E003A
:100F90000D4CE41AA410A54204D0AB00F3589847B6
:100FA0000135F8E700F020F8084B00251E00084C3A
:100FB000E41AA410A54204D0AB00F35898470135B9
:100FC000F8E770BD60000020600000206000002095
:100FD0006400002003008218934202D0197001338C
:100FE000FAE77047FEE7C046F8B5C046F8BC08BC53
:100FF0009E467047F8B5C046F8BC08BC9E46704790
:10100000200022002400260029002B002E003000A2
:10101000330037003A003D004100450049004D00D3
:10102000520057005C00610067006E0074007B0096
:1010300082008A0092009B00A400AE00B800C300AA
:10104000CF00DC00E900F60005011501250137019C
:1010500049015D01710187019F01B801D201ED01D4
:101060000B022A024B026E029302BA02E3020F0342
:101070003E037003A403DB03160454049604DC044B
:1010800026057405C7051F067D06E0064807B70755
:101090002D08A9082D09B9094D0AE90A8F0B3F0C43
:1010A000FA0CC00D910E6F0F5A1052115A12721392
:1010B0009A14D3151F177F18F419801B221DDE1EEA
:1010C000B420A522B524E4263429A72B3F2EFF30D7
:1010D000E9330037453ABC3D68414B456A49C84D44
:1010E00068524E577F5CFF61D367006E8A74787BCD
:1010F000D082978AD592909BD0A49DAEFFB8FFC3B3
:10110000413841384141384138414138203E433827
:101110003C46382E4731364134523420422D384235
:101120002D38422D382E422D3136422D384138414E
:1011300038413136413136413847384738463847EB
:10114000383E433C523820413841384141384138DB
:10115000414138203E43383C46382E4731364134F1
:10116000523420422D38422D38422D382E422D3116
:1011700036422D384138413841383E433843383CB7
:10118000422D3847384634520043204420454620FB
:10119000472041204200010E020A0E0A0A0A0A0AEA
:1011A0000A0A0A0A0A0E0E090E080E0D00000000B7
:1011B0000000000E0E0E0E050E0E040E0E030E079E
:1011C0000E060E0E0E0E0B0E0C00000003000000AB
:1011D0000200000001000000040000000500000003
:1011E000110000000C0000000B00000012000000C5
:1011F0000A000000060000001A00000014000000B1
:10120000170000001600000015000000100000008C
:10121000FFFFFFFFFFFFFFFF000000001E000000B8
:10122000190000001800000007000000080000007E
:10123000090000000D0000000E0000000F0000007B
:101240001C0000001B0000001D0000001300000037
:0C1250004300000000000020000000002F
:08125C0018EFFF7F0100000004
:10126400000000000000000000000000000000007A
:10127400000000000000000000000000000000006A
:1012840050120000000000000000000000000000F8
:10129400000000000000000000000000000000004A
:1012A400000000000000000000000000000000003A
:1012B400000000000000000000000000000000002A
:0C12C400390100000D01000000000000D6
:04000003000009ED03
:00000001FF
